{
  "contractName": "FundMe",
  "abi": [
    {
      "inputs": [
        {
          "internalType": "address",
          "name": "",
          "type": "address"
        }
      ],
      "name": "addressToAmountFunded",
      "outputs": [
        {
          "internalType": "uint256",
          "name": "",
          "type": "uint256"
        }
      ],
      "stateMutability": "view",
      "type": "function"
    },
    {
      "inputs": [],
      "name": "fund",
      "outputs": [],
      "stateMutability": "payable",
      "type": "function"
    }
  ],
  "bytecode": "0x6080604052633b9aca00600155348015610017575f80fd5b5061030d806100255f395ff3fe608060405260043610610028575f3560e01c80633e47d6f31461002c578063b60d428814610068575b5f80fd5b348015610037575f80fd5b50610052600480360381019061004d919061017d565b610072565b60405161005f91906101c0565b60405180910390f35b610070610086565b005b5f602052805f5260405f205f915090505481565b6001543410156100cb576040517f08c379a00000000000000000000000000000000000000000000000000000000081526004016100c290610259565b60405180910390fd5b345f803373ffffffffffffffffffffffffffffffffffffffff1673ffffffffffffffffffffffffffffffffffffffff1681526020019081526020015f205f82825461011691906102a4565b92505081905550565b5f80fd5b5f73ffffffffffffffffffffffffffffffffffffffff82169050919050565b5f61014c82610123565b9050919050565b61015c81610142565b8114610166575f80fd5b50565b5f8135905061017781610153565b92915050565b5f602082840312156101925761019161011f565b5b5f61019f84828501610169565b91505092915050565b5f819050919050565b6101ba816101a8565b82525050565b5f6020820190506101d35f8301846101b1565b92915050565b5f82825260208201905092915050565b7fe8bf99e4b8aae98791e992b1e9a29de695b0e5a4aae5b08fe4ba86efbc81e69c5f8201527f80e5b091e99c80e8a68131457468000000000000000000000000000000000000602082015250565b5f610243602e836101d9565b915061024e826101e9565b604082019050919050565b5f6020820190508181035f83015261027081610237565b9050919050565b7f4e487b71000000000000000000000000000000000000000000000000000000005f52601160045260245ffd5b5f6102ae826101a8565b91506102b9836101a8565b92508282019050808211156102d1576102d0610277565b5b9291505056fea26469706673582212201b3f11ef772c74f07369140f6d39936b3aaf6f2c19dd143dfbf220145e1742a164736f6c63430008150033",
  "immutableReferences": {},
  "source": "// SPDX-License-Identifier: MIT\r\n\r\npragma solidity ^0.8.21;\r\n\r\n/**\r\n * \r\n * \r\n *  1. \r\n *  2. \r\n *  3. \r\n *  4. \r\n *  5. usd\r\n */\r\n\r\n\r\ncontract FundMe {\r\n\r\n    // mapping\r\n    mapping(address => uint256) public addressToAmountFunded;\r\n    // wei\r\n    uint minmumPricing = 1e9;\r\n\r\n\r\n    // \r\n    // payable\r\n    function fund() public payable {\r\n      // msg.valuewei\r\n      // msg.sender\r\n\r\n      // \r\n      require(msg.value >= minmumPricing, unicode\"1Eth\");\r\n      addressToAmountFunded[msg.sender] += msg.value;\r\n    }\r\n}",
  "sourcePath": "C:\\Users\\Sears\\Desktop\\blockchain_learn\\fundMe\\contracts\\FundMe.sol",
  "compiler": {
    "name": "solc",
    "version": "0.8.21+commit.d9974bed.Emscripten.clang"
  },
  "schemaVersion": "3.4.15",
  "updatedAt": "2023-12-01T13:12:31.315Z",
  "devdoc": {
    "kind": "dev",
    "methods": {},
    "version": 1
  },
  "userdoc": {
    "kind": "user",
    "methods": {},
    "notice": "   1.   2.   3.   4.   5. usd",
    "version": 1
  }
}